:100000000C945F000C9487000C9487000C9487007C
:100010000C9487000C9487000C9487000C94870044
:100020000C9487000C9487000C9487000C94870034
:100030000C9487000C9487000C9487000C94870024
:100040000C9465050C9487000C94B9020C94FC0286
:100050000C9487000C9487000C9487000C94870004
:100060000C94D4060C9487000000000700020100E5
:100070000003040600000000000000000102040864
:100080001020408001020408102001020408102002
:10009000040404040404040402020202020203032E
:1000A0000303030300000000250028002B000000CC
:1000B0000000240027002A00AC00BF03E90411243B
:1000C0001FBECFEFD8E0DEBFCDBF11E0A0E0B1E0B2
:1000D000ECE5F0E102C005900D92AC33B107D9F721
:1000E00022E0ACE3B1E001C01D92AE3BB207E1F704
:1000F00010E0CFE5D0E004C02197FE010E94260861
:10010000CC35D107C9F70E9412020C9401080C9457
:10011000000040E855E260E070E085E491E00E9474
:10012000370361E170E08FEE91E00E94E20460EB42
:1001300070E08FEE91E00E94E404E0E4F1E01182CF
:100140001082138212820895E0E4F1E060817181EF
:10015000828193810C945B0584E491E00C94ED041E
:10016000CF93DF938FEE91E00E9402048FEE91E037
:100170000E940204CEE3D1E089838FEE91E00E94D9
:10018000020488838FEE91E00E940204CCE3D1E068
:1001900089838FEE91E00E9402048883C0E4D1E05D
:1001A00080913E0190913F019B838A8380913C0125
:1001B00090913D019983888360E071E085E491E04E
:1001C0000E9437016A817B814AE050E085E491E03A
:1001D0000E94F4016CE071E085E491E00E94370137
:1001E000688179814AE050E085E491E0DF91CF9128
:1001F0000C94FB01CF92DF92EF92FF920F931F932B
:10020000CF93DF936C01EB017B01E40EF51E00E060
:1002100010E0CE15DF0561F06991D601ED91FC91FA
:100220000190F081E02DC6010995080F191FF1CF4B
:10023000C801DF91CF911F910F91FF90EF90DF9058
:10024000CF9008956115710579F0FB0101900020B0
:10025000E9F73197AF01461B570BDC01ED91FC919B
:100260000280F381E02D099480E090E008950C94E1
:100270002201DC01ED91FC910190F081E02D0994C7
:100280000F931F93CF93DF93EC016DE00E94390130
:100290008C016AE0CE010E943901800F911FDF912D
:1002A000CF911F910F9108958F929F92AF92BF921D
:1002B000CF92DF92EF92FF920F931F93CF93DF9332
:1002C000CDB7DEB7A1970FB6F894DEBF0FBECDBF96
:1002D0006C01142FE52FCB01022F19A2223008F454
:1002E0000AE07E0121E2E20EF11C802E912CA12C6D
:1002F000B12C612F7E2FA50194010E940408029F5A
:100300001019112481E0E81AF1081A3014F4105D74
:1003100001C0195CF7011083122FE32FCA01232BB0
:10032000242B252B31F7B701C6010E942201A1968B
:100330000FB6F894DEBF0FBECDBFDF91CF911F91F6
:100340000F91FF90EF90DF90CF90BF90AF909F9074
:100350008F900895CF92DF92EF92FF920F931F93A9
:10036000CF93DF93EC016A017B012115310579F40C
:10037000E881F9810190F081E02D642FDF91CF9128
:100380001F910F91FF90EF90DF90CF9009942A304A
:100390003105E9F477FF1AC06DE20E9439018C0142
:1003A00044275527BA014C195D096E097F092AE0D7
:1003B000CE010E945401800F911FDF91CF911F91B8
:1003C0000F91FF90EF90DF90CF9008952AE0B70152
:1003D000A601CE01DF91CF911F910F91FF90EF9079
:1003E000DF90CF900C9454019A01AB01770F660B0C
:1003F000770B0C94AA010F931F93CF93DF93EC011B
:100400009A01AB01770F660B770B0E94AA018C0152
:10041000CE010E944001800F911FDF91CF911F916B
:100420000F9108950E94AF050E948900C3EFD2E0AA
:100430000E94A4002097E1F30E94F302F9CFFC018F
:1004400024853585F901E05CFF4F808191813296EA
:1004500020813181821B930B8F7399270895DC01D2
:100460001C96ED91FC911D97DF01A05CBF4F2D9173
:100470003C91119712968D919C91119728173907ED
:1004800039F08D919C91E80FF91F808190E00895DB
:100490008FEF9FEF0895FC01A485B585FD01E05C19
:1004A000FF4F208131813296808191812817390751
:1004B00079F080819181A80FB91F8C9120813181C1
:1004C0002F5F3F4F2F7333273183208390E00895B0
:1004D0008FEF9FEF0895FC0181A1882329F0A48963
:1004E000B5898C9186FFFBCF11A208950F931F93BE
:1004F000CF93DF93FC01A685B7858D01005C1F4F6C
:10050000E8018881998101968F739927AD014E5B2F
:100510005F4FEA012881398182179307D1F3E801FF
:1005200028813981A20FB31F6C93A685B785A05C83
:10053000BF4F11969C938E93A689B7892C9181E029
:1005400090E0078C02C0880F991F0A94E2F7822B73
:100550008C9381E081A30488F589E02D80818064FB
:10056000808381E090E0DF91CF911F910F910895FA
:1005700008951F920F920FB60F9211242F934F934D
:100580005F938F939F93EF93FF938091C00082FDC1
:100590001CC02091C6008091EB019091EC01019666
:1005A0008F7399274091ED015091EE0184179507C3
:1005B00071F0E091EB01F091EC01E555FE4F2083E5
:1005C0009093EC018093EB0102C08091C600FF91F3
:1005D000EF919F918F915F914F912F910F900FBE4F
:1005E0000F901F90189585E491E00E941F02892BBF
:1005F00011F00C94B80208951F920F920FB60F924B
:1006000011242F933F938F939F93EF93FF93209108
:10061000A7013091A8018091A9019091AA01281702
:10062000390731F48091C1008F7D8093C10014C0DF
:10063000E091A901F091AA01E959FE4F2081809132
:10064000A9019091AA0101968F7399279093AA010D
:100650008093A9012093C600FF91EF919F918F9104
:100660003F912F910F900FBE0F901F901895CF9232
:10067000DF92EF92FF920F931F93CF93DF93EC01E2
:100680006A017B014115514E6105710509F1EC8943
:10069000FD8981E090E008A002C0880F991F0A94AC
:1006A000E2F7808360E079E08DE390E0A7019601B6
:1006B0000E94040889019A01015011092109310998
:1006C0003695279517950795980101151041A8F0C3
:1006D000EC89FD89108260E874E88EE190E0A70162
:1006E00096010E940408DA01C9010197A109B10924
:1006F000B695A795979587959C01E889F9893083E8
:10070000EA89FB89208319A2EE89FF89408181E073
:1007100090E09C010C8C02C0220F331F0A94E2F778
:10072000242B2083EE89FF8940819C010D8C02C01F
:10073000220F331F0A94E2F7242B2083EE89FF89CE
:1007400040819C010E8C02C0220F331F0A94E2F7F5
:10075000242B2083EE89FF8920810F8C02C0880F13
:10076000991F0A94E2F7809582238083DF91CF91CD
:100770001F910F91FF90EF90DF90CF900895E5E4E7
:10078000F1E01382128288EE93E0A0E0B0E084836F
:100790009583A683B7838FE191E0918380838BEA71
:1007A00091E09587848787E691E09787868785EC37
:1007B00090E0918B808B84EC90E0938B828B80EC2B
:1007C00090E0958B848B81EC90E0978B868B82EC0C
:1007D00090E0918F808F86EC90E0938F828F84E001
:1007E000848F83E0858F87E0868F85E0878F81E027
:1007F00080A308958091220290E020912302821B21
:10080000910908959091230280912202981750F443
:10081000E92FF0E0EC5DFD4F208130E09F5F909389
:10082000230202C02FEF3FEFC9010895E091230298
:1008300080912202E81730F4F0E0EC5DFD4F8081FA
:1008400090E008958FEF9FEF08950895AC01E09137
:10085000FB01F091FC013097E1F09091230280912F
:1008600022029817B0F090E0292F30E026173707C2
:1008700054F4DA01A20FB31F8C91D901AC5DBD4FC6
:100880008C939F5FF1CF1092230260932202CB01E1
:1008900009940895E091FD01F091FE01309729F04F
:1008A000109201021092000209940895CF92DF92F3
:1008B000EF92FF920F931F93CF93DF937C01262F2C
:1008C000972F8A018091FF01882391F0C62FD72F9F
:1008D0006E01C40ED51ECC15DD0571F06991D701EE
:1008E000ED91FC910190F081E02DC7010995F3CFC6
:1008F000642F822F0E94A106C801DF91CF911F9122
:100900000F91FF90EF90DF90CF900895CF93DF93FA
:100910001F92CDB7DEB769832091FF012223D1F06A
:1009200020910002203240F021E030E0FC013383CE
:10093000228380E090E015C080910102E82FF0E072
:10094000EE5FFD4F998190838F5F809301028093CA
:10095000000205C061E0CE0101960E94A10681E07F
:1009600090E00F90DF91CF910895FC0113821282E5
:1009700088EE93E0A0E0B0E084839583A683B783FC
:100980008FE291E091838083089510922302109268
:10099000220210920102109200020C947F06CF9363
:1009A000DF93EC01862F0E949D068AE494E00E946A
:1009B000BF0686E294E00E94BA06CE01DF91CF9195
:1009C0000C94C5040C94CF047093FC016093FB015C
:1009D00008958FEE91E00C94B504089561E08AE0EB
:1009E0000E94130661E089E00E94130661E088E03E
:1009F0000E94130661E087E00E94130680EA80935C
:100A0000800081E18093810080E991E090938700EC
:100A100080938600089580914402811105C081E091
:100A2000809344020C94EE040895CF93DF93EC017D
:100A30000E940B05D7FF05C0D195C195D10981E072
:100A400001C080E0C13991E0D90714F0C0E9D1E0DC
:100A5000D0938B00C0938A0090914602891711F0C1
:100A600061E001C060E088E0DF91CF910C944F0617
:100A7000CF93DF93EC010E940B05D7FF05C0D19502
:100A8000C195D10981E001C080E0C13991E0D90769
:100A900014F0C0E9D1E0D0938900C0938800909110
:100AA0004502891711F061E001C060E087E0DF9145
:100AB000CF910C944F06CF93DF93EB010E94150565
:100AC000CE01DF91CF910C9438051F920F920FB693
:100AD0000F9211242F933F938F939F93AF93BF93C4
:100AE0008091480290914902A0914A02B0914B0234
:100AF0003091470223E0230F2D3720F40196A11DEA
:100B0000B11D05C026E8230F0296A11DB11D20933B
:100B100047028093480290934902A0934A02B093FF
:100B20004B0280914C0290914D02A0914E02B091E7
:100B30004F020196A11DB11D80934C0290934D026E
:100B4000A0934E02B0934F02BF91AF919F918F91AE
:100B50003F912F910F900FBE0F901F901895789492
:100B600084B5826084BD84B5816084BD85B58260B2
:100B700085BD85B5816085BDEEE6F0E08081816050
:100B80008083E1E8F0E01082808182608083808150
:100B900081608083E0E8F0E0808181608083E1EB28
:100BA000F0E0808184608083E0EBF0E08081816010
:100BB0008083EAE7F0E080818460808380818260C6
:100BC00080838081816080838081806880831092AF
:100BD000C1000895833081F028F4813099F082308B
:100BE000A1F008958630A9F08730B9F08430D1F4AF
:100BF000809180008F7D03C0809180008F778093EB
:100C00008000089584B58F7702C084B58F7D84BD40
:100C100008958091B0008F7703C08091B0008F7DE0
:100C20008093B0000895CF93DF9390E0FC01E458E7
:100C3000FF4F2491FC01E057FF4F8491882361F11D
:100C400090E0880F991FFC01E255FF4FC591D491A8
:100C5000FC01EC55FF4FA591B491611109C09FB7FC
:100C6000F8948881209582238883EC912E230BC0F1
:100C7000623061F49FB7F8943881822F8095832386
:100C80008883EC912E2B2C939FBF06C08FB7F894CE
:100C9000E8812E2B28838FBFDF91CF9108951F937A
:100CA000CF93DF93282F30E0F901E859FF4F84916B
:100CB000F901E458FF4FD491F901E057FF4FC49177
:100CC000CC23C9F0162F81110E94EA05EC2FF0E029
:100CD000EE0FFF1FEC55FF4FA591B4918FB7F8941D
:100CE000111105C09C91ED2FE095E92302C0EC9114
:100CF000ED2BEC938FBFDF91CF911F910895109250
:100D0000BD0281E08093BB021092BA0261E082E1F1
:100D10000E944F0661E083E10E944F06E9EBF0E09C
:100D200080818E7F808380818D7F808388E4809323
:100D3000B80085E48093BC000895880F8093BA00C2
:100D40000895613298F42091BD02243089F46093B3
:100D50007202FC0124E732E0D9018A2F821B861738
:100D600018F481918D93F9CF80E0089581E0089582
:100D700082E008959093B7028093B602089590930D
:100D8000B9028093B802089585ED8093BC008091EC
:100D9000BC0084FDFCCF1092BD02089585EC8093C9
:100DA000BC001092BD0208951F920F920FB60F92D1
:100DB00011242F933F934F935F936F937F938F9360
:100DC0009F93AF93BF93EF93FF938091B900887F78
:100DD000803609F49CC068F5883209F45BC090F451
:100DE000803109F454C038F4882309F4F5C0883000
:100DF00009F44DC0F5C0883109F44CC0803209F4C3
:100E00005DC0EEC0803409F468C048F4803309F452
:100E100055C0883309F0E4C080935002A8C08035E3
:100E200009F44FC0883509F45DC0883409F0D8C092
:100E3000D5C0883909F4C6C0A8F4883709F467C05A
:100E400038F4883609F463C0803709F460C0C8C03C
:100E5000883809F4B7C0803909F45FC0803809F0D8
:100E6000BFC05BC0803B09F485C038F4803A09F408
:100E700066C0883A09F47EC0B3C0803C09F4A6C0BD
:100E8000883C09F4A3C0883B09F489C0A9C08091BB
:100E9000BC0210C09091950280919402981770F551
:100EA000E091950281E08E0F80939502F0E0EA5682
:100EB000FD4F80818093BB0085EC85C080935002FC
:100EC0008DC0E091950281E08E0F80939502809114
:100ED000BB00F0E0EA56FD4F80839091950280912F
:100EE00094026DC0E091950281E08E0F809395028F
:100EF0008091BB00F0E0EA56FD4F80838091BB02F9
:100F000081116CC081E08093BA0284EA60C083E002
:100F10008093BD0210925102CFCF80915102803256
:100F200008F050C0E091510281E08E0F8093510291
:100F30008091BB00F0E0EE5AFD4F8083BDCF8091E1
:100F40005102803230F4E0915102F0E0EE5AFD4F50
:100F500010820E94C4066091510270E0E091B602D6
:100F6000F091B70282E592E00995109251020E9439
:100F7000CE0636C084E08093BD02109273021092B8
:100F80007202E091B802F091B90209958091720263
:100F9000811105C081E08093720210927402E09189
:100FA000730281E08E0F80937302F0E0EC58FD4FE6
:100FB00080818093BB009091730280917202981798
:100FC00008F47ACF85E88093BC000AC085EC809352
:100FD000BC001092BD0204C0109250020E94C406D0
:100FE000FF91EF91BF91AF919F918F917F916F9101
:100FF0005F914F913F912F910F900FBE0F901F90D7
:101000001895F8940C942C08A1E21A2EAA1BBB1B6D
:10101000FD010DC0AA1FBB1FEE1FFF1FA217B307C4
:10102000E407F50720F0A21BB30BE40BF50B661FDA
:10103000771F881F991F1A9469F76095709580959E
:1010400090959B01AC01BD01CF010895EE0FFF1FEC
:0C1050000590F491E02D0994F894FFCF76
:10105C006C65667453706565643A2000092072698A
:10106C0067687453706565643A2000000000007670
:10107C0002FA001F024B022F026B020000000086D6
:0C108C00045604FA0302041604250400B4
:00000001FF
